:100000000C946F060C94B3060C94B3060C94B306D0
:100010000C94B3060C94B3060C94B3060C94B3067C
:100020000C94B3060C94B3060C9491160C946317BD
:100030000C94E7250C94B3060C94B3060C94B30609
:100040000C94B3060C94E82B0C94B3060C94B306F2
:100050000C94B3060C945E250C94B3060C94B30672
:100060000C94B3060C94B3060C94B3060C94B3062C
:100070000C94B3060C94B3060C94B3060C94B3061C
:100080000C9447110C94B3060C94B3060C94B3066D
:100090000C94B3060C94B3060C94B3060C94B306FC
:1000A0000C94B3060C94B3060C94B306B907BE07C0
:1000B000E507E107F307EF070108FD07C817EA178F
:1000C000D518EA17D5182C184F18D518A418B71832
:1000D000A81BA81BD61BD61B321C9F1E9F1E9F1E33
:1000E000501C9F1E471D471D031E181E9F1E8C1E61
:1000F000291E1F20212223242526272D2E2A2B14BA
:100100001A0815171C180C12132F30313904160752
:10011000090A0B0D0E0F3334322879641D1B0619A2
:10012000051110363738757D787B7A80802C804CAD
:1001300050357E7F657C001080FF54494D45523319
:100140002064697361626C65642E0A0054494D45F0
:10015000523320656E61626C65642E0A00726762BC
:100160006C696768742073657420687376205B45DA
:100170004550524F4D5D3A2025752C25752C25751F
:100180000A007267626C6967687420746F67676CD5
:10019000653A207267626C696768745F636F6E6648
:1001A00069672E656E61626C65203D2025750A00C9
:1001B0007267626C69676874206D6F64653A2025A8
:1001C000750A007267626C696768745F696E69744A
:1001D000207267626C696768745F636F6E666967D7
:1001E0002E6D6F6465203D20302E20577269746536
:1001F0002064656661756C742076616C756573202A
:10020000746F20454550524F4D2E0A007267626C44
:10021000696768745F696E6974206565636F6E668F
:100220006967206973206E6F7420656E61626C650A
:10023000642E0A007267626C696768745F696E6930
:1002400074207374617274210A007267626C69674A
:1002500068745F696E69742063616C6C65642E0AF2
:10026000007267626C696768745F636F6E66696766
:100270002E76616C203D2025640A007267626C69ED
:100280006768745F636F6E6669672E736174203D83
:100290002025640A007267626C696768745F636F27
:1002A0006E6669672E687565203D2025640A0072B8
:1002B00067686C696768745F636F6E6669672E6DE7
:1002C0006F6465203D2025640A007267626C69676F
:1002D00068745F636F6E6669672E656E61626C65D8
:1002E000203D2025640A007267626C696768745F4C
:1002F000636F6E666967206570726F6D0A00656571
:10030000636F6E6669675F77726974655F72676253
:100310006C696768745F64656661756C740A006413
:100320003214643214783C1E1E140A0500000000CA
:100330000101010202030405050607090A0B0C0E60
:100340000F1112141517191B1D1F212325282A2CE4
:100350002F313436393B3E414346494C4F52555874
:100360005A5D6164676A6D707376797C7F83868974
:100370008C8F9295989B9EA2A5A7AAADB0B3B6B953
:10038000BCBEC1C4C6C9CBCED0D3D5D7DADCDEE083
:10039000E2E4E6E8EAEBEDEEF0F1F3F4F5F6F8F975
:1003A000FAFAFBFCFDFDFEFEFEFFFFFFFFFFFFFF75
:1003B000FEFEFEFDFDFCFBFAFAF9F8F6F5F4F3F1AA
:1003C000F0EEEDEBEAE8E6E4E2E0DEDCDAD7D5D306
:1003D000D0CECBC9C6C4C1BEBCB9B6B3B0ADAAA756
:1003E000A5A29E9B9895928F8C898683807C797636
:1003F00073706D6A6764615D5A5855524F4C494637
:1004000043413E3B393634312F2C2A282523211FE6
:100410001D1B1917151412110F0E0C0B0A090706D4
:1004200005050403020201010100000000010102B0
:100430000202020202030303030303030303030391
:10044000030303040404040404040404040404056E
:100450000505050505050505050606060606060645
:100460000607070707070707080808080808090913
:10047000090909090A0A0A0A0A0B0B0B0B0B0C0CD7
:100480000C0C0C0D0D0D0D0E0E0E0E0F0F0F10108F
:100490001010111111121212131313141414151534
:1004A000161616171718181919191A1A1B1B1C1CBF
:1004B0001D1D1E1E1F20202121222323242425262A
:1004C00026272828292A2B2B2C2D2E2F303031326D
:1004D000333435363738393A3B3C3D3E3F40414274
:1004E00044454647494A4B4C4E4F51525355565836
:1004F0005A5B5D5E6062636567696B6D6E70727496
:1005000076797B7D7F818486888B8D909295979A72
:100510009D9FA2A5A8ABAEB1B4B7BABEC1C4C8CBAB
:10052000CFD3D6DADEE2E6EAEEF2F8FF4B65796287
:100530006F6172642073746172742E0A00555342A5
:1005400020636F6E666967757265642E0A000D0A16
:10055000696E69740A005B445D005B435D003003B3
:10056000470048003600300020005200470042009B
:10057000200055006E0064006500720020004700F6
:100580006C006F00770020004D006F0064000000D9
:100590000A03590041004E0047000000040309040B
:1005A00009027400040100A03209040000010301E3
:1005B0000100092111010001224000070581030803
:1005C000000A0904010001030000000921110100D3
:1005D00001221B000705820308000A090402000229
:1005E00003000000092111010001222200070583F8
:1005F0000320000107050303200001090403000193
:1006000003000000092111010001223900070584BF
:10061000032000011201100100000008EDFE6060DF
:1006200001000102000105010906A101050719E009
:1006300029E71500250195087501810205081901B2
:10064000290595057501910295017503910105072D
:10065000190029F71500250195F875018102C006DA
:1006600031FF0974A1010975150026FF0095207559
:100670000881020976150026FF0095207508910271
:10068000C0050C0901A1018503160100269C021A70
:1006900001002A9C02751095018100C00501090620
:1006A000A101050719E029E7150025019508750145
:1006B0008102950175088101050819012905950533
:1006C000750191029501750391010507190029FF34
:1006D000150026FF00950675088100C00A00253028
:1006E000325820006B6579626F6172645F72657069
:1006F0006F72743A20004C45443A20253032580A33
:100700000064656C5F6B65795F6269743A20636150
:100710006E27742064656C3A20253032580A0061D7
:1007200064645F6B65795F6269743A2063616E2708
:1007300074206164643A20253032580A00646F6E78
:10074000652E0A00626F6F746D6167696320736361
:10075000616E3A202E2E2E20003F00433E20004C9A
:1007600025640A000A092D20436F6E736F6C6520A3
:100770002D0A4553432F713A09717569740A000AAD
:10078000092D204D61676963202D0A643A0964656B
:100790006275670A783A096465627567206D6174ED
:1007A0007269780A6B3A096465627567206B6579CE
:1007B000626F6172640A6D3A096465627567206DE3
:1007C0006F7573650A763A0976657273696F6E0A9A
:1007D000733A097374617475730A633A09636F6ECF
:1007E000736F6C65206D6F64650A302D343A096C47
:1007F00061796572302D34284631302D4634290A0E
:10080000506175733A09626F6F746C6F61646572E1
:100810000A653A09656570726F6D0A6E3A094E4B4A
:10082000524F0A000A002575002E6C6576656C3AF9
:1008300020000A002575002E656E61626C653A2005
:10084000000A0025303258006261636B6C6967688A
:10085000745F636F6E6669672E7261773A20000A73
:10086000002575002E6E6B726F3A20000A00257508
:10087000002E737761705F6261636B736C61736884
:100880005F6261636B73706163653A20000A0025E3
:1008900075002E737761705F67726176655F65734F
:1008A000633A20000A002575002E6E6F5F67756938
:1008B0003A20000A002575002E737761705F72611F
:1008C0006C745F726775693A20000A002575002E06
:1008D000737761705F6C616C745F6C6775693A20E7
:1008E000000A002575002E636170736C6F636B5F87
:1008F000746F5F636F6E74726F6C3A20000A00252C
:1009000075002E737761705F636F6E74726F6C5FCA
:10091000636170736C6F636B3A20000A002530329C
:1009200058006B65796D61705F636F6E6669672EE5
:100930007261773A20000A002575002E6D6F75737D
:10094000653A20000A002575002E6B6579626F619B
:1009500072643A20000A002575002E6D6174726978
:10096000783A20000A002575002E656E61626C657C
:100970003A20000A00253032580064656275675FCE
:10098000636F6E6669672E7261773A20000A0025F0
:10099000750064656661756C745F6C617965723A47
:1009A00020003F004E4B524F3A206F66660A004EC1
:1009B0004B524F3A206F6E0A0074696D65725F7218
:1009C000656164333228293A202530346C580A0096
:1009D0006B6579626F6172645F6E6B726F3A20252E
:1009E000580A006B6579626F6172645F69646C6557
:1009F0003A2025580A006B6579626F6172645F70F6
:100A0000726F746F636F6C3A2025580A00686F73B9
:100A1000745F6B6579626F6172645F6C6564732883
:100A2000293A2025580A000A092D2053746174754B
:100A300073202D0A004743433A20342E382E3220AB
:100A40004156522D4C4942433A20312E382E302007
:100A50004156525F415243483A20617672350A004E
:100A60004F5054494F4E533A204C55464120424F27
:100A70004F544D414749432045585452414B4559E5
:100A800020434F4E534F4C4520434F4D4D414E4414
:100A9000204E4B524F204B45594D41505F534543DB
:100AA00054494F4E204241434B4C494748542053F0
:100AB0004F465450574D5F4C454420425245415497
:100AC00048494E475F4C454420343039360A00428D
:100AD00055494C443A20623761623234632D64696F
:100AE000727479202831323A31373A3235204A61EE
:100AF0006E2032322032303137290A005649443ACA
:100B0000203078464545442859414E4729205049D0
:100B1000443A203078363036302847483630205234
:100B2000474220556E64657220476C6F77204D6F89
:100B30006429205645523A203078303030310A004E
:100B4000444553433A20742E6D2E6B2E206B6579ED
:100B5000626F617264206669726D7761726520668A
:100B60006F7220474836300A000A092D20566572F8
:100B700073696F6E202D0A000A6D6F7573653A20D8
:100B80006F66660A000A6D6F7573653A206F6E0AAC
:100B9000000A6B6579626F6172643A206F66660A5B
:100BA000000A6B6579626F6172643A206F6E0A00A9
:100BB0000A6D61747269783A206F66660A000A6D80
:100BC00061747269783A206F6E0A000A6465627512
:100BD000673A206F6E0A000A64656275673A206F93
:100BE00066660A000A0A626F6F746C6F61646572F0
:100BF0002E2E2E2000433E20006565636F6E6669D1
:100C0000673A0A0000000000000000000000010137
:100C10000102020203030404050506060708080989
:100C20000A0B0B0C0D0E0F10111213151617191AB3
:100C30001B1D1E2022232527292B2D2F313335382C
:100C40003A3D3F4244474A4D505356595C5F6266B5
:100C5000696C7074777B7E82868A8E9195999DA14E
:100C6000A5A9ADB0B4B8BCC0C3C7CBCED2D5D8DB74
:100C7000DFE2E4E7EAECEFF1F3F5F7F8FAFBFCFD6D
:100C8000FEFFFFFF6261636B6C69676874207374B9
:100C900065703A2025750A006261636B6C6967684C
:100CA0007420746F67676C653A2025750A0062616D
:100CB000636B6C69676874206465637265617365F2
:100CC0003A2025750A006261636B6C69676874205D
:100CD000696E6372656173653A2025750A00112497
:100CE0001FBECFEFDAE0DEBFCDBF04B603FE24C0E7
:100CF0008091460290914702A0914802B09149022A
:100D00008730904BA740B04BB9F410924602109236
:100D10004702109248021092490214BE84B7877F9E
:100D200084BF88E10FB6F894809360001092600051
:100D30000FBEE0E0F8E3099511E0A0E0B1E0ECE1DE
:100D4000FCE502C005900D92A432B107D9F712E07C
:100D5000A4E2B1E001C01D92A634B107E1F70E9400
:100D6000C4130C940C2E0C940000FF93EF93E091AD
:100D70002401F0912501309709F00995EF91FF9139
:100D80000895FC018591803011F0EFDFFBCF0895CD
:100D9000FF27E0E230E247FF0CC0419597FF09C012
:100DA000EDE26095709580959095611D711D811D96
:100DB000911D27FF02C0219530E350E2AA27660F5C
:100DC000771F881F991FAA1FA41710F0A41B6395F3
:100DD0005A95A9F7AA3008F0A95FA05DAF93F395E3
:100DE000611571058105910541F7ED3211F4EF931D
:100DF000F395F21718F43F93F395FBCF8F91B5DF7E
:100E0000FA95E1F70895E991F9918591803021F003
:100E1000853219F0AADFF9CF089520E0E8945591C2
:100E20005532C1F3503311F4689455915A3348F454
:100E3000505390F3220F022E220F220F200D250F68
:100E4000F4CF0EF4219589919991533619F35337C4
:100E500029F1533559F1BC0188279927E8945C366C
:100E600021F48991999168945591543639F446EF5B
:100E70007EF077FF0DC08FEF9FEF0AC055374AE035
:100E800039F0583540E121F0523642E009F008953A
:100E9000FF93EF937DDFEF91FF91B7CFFF93EF9338
:100EA000FC0181918030B9F360DFFBCFFF93EF93BA
:100EB00068DFF1CFDF93CF93CDB7DEB72596A3DF01
:100EC000CF91DF9108951F93CF93DF93EC01162FFD
:100ED0008A81613091F018F0623031F13AC0882394
:100EE00071F00E94A424827231F00E94A42480FD3B
:100EF00002C085E312C089E210C0811107C0809151
:100F000026010E94331B0E94E32423C00E94A424D4
:100F100082FF02C08DE301C081E2809326018091AF
:100F200026010E947C1AEFCF882399F00E94A42406
:100F300080FF0DC00E94B81E2FEF80E792E0215085
:100F400080409040E1F700C000000E9483250E948D
:100F5000B81E8A81882309F45EC0812F90E0FC01CD
:100F60003397E830F10508F056C0EA5AFF4F0C9469
:100F7000B12DDF91CF911F910C94E90E0E94A42412
:100F800081FF1AC09091FF01892F8695815C8F7334
:100F90009178882329F0880F892B8093FF0103C063
:100FA0009E629093FF018091FF0186958F73DF9180
:100FB000CF911F910C941D0EDF91CF911F910C9436
:100FC000DF0E0E94A42481FF05C0DF91CF911F9105
:100FD0000C945C0DDF91CF911F910C94430D0E94F6
:100FE000A42481FF05C0DF91CF911F910C94960D31
:100FF000DF91CF911F910C947B0D0E94A42481FF5F
:1010000005C0DF91CF911F910C94CB0DDF91CF9153
:101010001F910C94B00DDF91CF911F9108958AB16B
:10102000807D8AB98BB1807D8BB9089580E885BFBA
:1010300085BF0E94730E0E940F0880B38C7F80BB17
:1010400081B3836081BB6E98769A8AB18F728AB9B8
:101050008BB1806D8BB987B18F7387B988B1806C84
:1010600088B980913B01882331F084B1847484B9BC
:1010700085B18B6B05C084B1847084B985B18B6FE9
:1010800085B92FEF83EC99E0215080409040E1F743
:1010900000C000001E9903C081E080933B01E1E3A2
:1010A000F1E0A7E2B1E0119211921D921D9221E0B0
:1010B000EB33F207C1F70895FF920F931F93CF937D
:1010C000DF93C7E2D1E010E001E0E5E0FE2E123050
:1010D00071F018F4113041F004C0133059F014309D
:1010E00061F0509A58980BC0519A599808C0529A7A
:1010F0005A9805C0539A5B9802C0559A5D9880EA49
:101100008A95F1F780913B01882309F492C02FB1B1
:101110002170202730E0799B03C080E090E002C07E
:1011200082E090E0282B392B669B03C080E090E0A2
:1011300002C084E090E0282B392B86B1992787FDE7
:101140009095809590958827990F881F992773E02F
:10115000880F991F7A95E1F7282B392B369B03C00E
:1011600080E090E002C080E190E0282B392B83B131
:10117000992787FD9095809590958827990F881FCE
:10118000992755E0880F991F5A95E1F7282B392B9D
:101190004C9B03C060E070E002C060E470E0262B6E
:1011A000372B199B03C060E070E002C060E870E07C
:1011B000262B372B189B03C080E090E002C080E014
:1011C00091E0282B392B1D9B03C040E050E002C06A
:1011D00040E052E0242B352B1C9B03C040E050E044
:1011E00002C040E054E0242B352B89B1992787FDBC
:1011F0009095809590958827990F881F9927982F0B
:101200008827990F990F990F282B392B4E9B03C0D4
:1012100080E090E002C080E090E1822B932B1B9B4A
:1012200003C040E050E002C040E050E2842B952B28
:1012300093C08FB18170802790E0799B03C020E03C
:1012400030E002C022E030E0822B932B669B03C08B
:1012500020E030E002C024E030E0822B932B26B166
:10126000332727FD3095209530952227330F221FF5
:101270003327F3E0220F331FFA95E1F7822B932BEC
:10128000369B03C060E070E002C060E170E0862B36
:10129000972B1E9B03C060E070E002C060E270E02C
:1012A000682B792B4C9B03C020E030E002C020E487
:1012B00030E0262B372B199B03C040E050E002C0E2
:1012C00040E850E0422B532B189B0DC083B1992767
:1012D00087FD9095809590958827990F881F99276D
:1012E000982F882702C080E091E0842B952B1D9BCE
:1012F00003C020E030E002C020E032E0822B932BDC
:101300001C9B03C020E030E002C020E034E0822BD0
:10131000932B29B1332727FD30952095309522272F
:10132000330F221F3327322F2227330F330F330F70
:10133000822B932B4E9B03C020E030E002C020E0C4
:1013400030E1822B932B1B9B03C020E030E002C0D6
:1013500020E030E2822B932B28813981281739072E
:1013600021F099838883F09200010E940F081F5F8B
:101370002296153009F0ABCE809100018823C1F090
:10138000815080930001882339F08FE99FE0019715
:10139000F1F700C000000CC0A1E3B1E0E7E2F1E02A
:1013A000819191918D939D9391E0E133F907C1F77C
:1013B00081E0DF91CF911F910F91FF900895E82F69
:1013C000F0E0EE0FFF1FEF5CFE4F808191810895EA
:1013D000089581FF02C0229A01C022982A98089598
:1013E000CF93C82F8730A0F4843000F58130D0F13E
:1013F0000E946E2B0E94812B0E94BD2B0E94E22B2B
:10140000EC2FF0E0EA5CFE4F8491CF910C948C2B92
:101410008730C9F0883031F50E946E2B0E94812BF5
:101420000E94B72B0E94E22B81E016C00E946E2B17
:101430000E94812B0E94BD2B0E94DC2B86E08C1B1E
:10144000CF910C94E52B0E946E2B0E94812B0E9461
:10145000B72B0E94E22B80E00E94D22B83E0CF9139
:101460000C94D62B0E94BD2B0E94E22B0E94872B4E
:10147000CF910C94772B80913B01882311F0269A11
:101480000895859A089580913B01882311F02E9A42
:1014900008958D98089580913B01882311F02E982E
:1014A00008958D9A08951F93CF93DF9300D000D0B5
:1014B0001F92CDB7DEB7162F8091450280FF20C066
:1014C0008E7F8E3041F4662331F080E20E94D92B6A
:1014D00080E10E94B32B809145028E7F803181F4A0
:1014E000112371F080E20E94D92B80E10F900F90C0
:1014F0000F900F900F90DF91CF911F910C94A32B21
:101500000F900F900F900F900F90DF91CF911F9140
:10151000089530913B01242F2095332321F03EB1D3
:1015200032232EB103C031B3322321B3242B4FB762
:10153000F89450913B01FC01680F791FE617F707FB
:1015400009F423C08191552381F098E02EB9000061
:1015500000C087FF3EB9880F000000C000C000C077
:101560003EB900C09A9591F7E9CF98E021BB000001
:1015700000C087FF31BB880F000000C000C000C062
:1015800031BB00C09A9591F7D9CF4FBF08952091F4
:101590003B01222321F02DB1242B2DB903C020B310
:1015A000242B20BB9B01220F331F260F371FB901AD
:1015B0000E94890A87EC90E00197F1F700C00000D3
:1015C000089520913B01222311F044E001C040E442
:1015D0000C94C70ACF92DF92EF92FF920F931F9362
:1015E000CF93DF937C01E42FF0E0E45DFB4F449167
:1015F0008FEF90E0FC01E61BF109E45DFB4FE49105
:10160000E09509F496C0042F10E08E1B9109809F8D
:10161000B001819F700D909F700D1124E72FF72F5F
:10162000CCE3D0E0C701BE010E94892DDC0162300D
:10163000710509F447C0D8F461157105A1F1613055
:10164000710509F07AC00E1B1109CE018A1B9B0B94
:10165000DC010A9FC0010B9F900D1A9F900D112471
:10166000BE010E94892DCE2EC60ED42E67C06430D6
:10167000710509F44BC0B8F16530710509F05DC022
:101680000E1B1109BE01681B790B069FC001079F45
:10169000900D169F900D1124BE010E94892DDE2E03
:1016A000FE2FF60F44C00E1B11090E9DC0010F9DA9
:1016B000900D1E9D900D1124BE010E94892DDE2EDD
:1016C000D60E35C00E1B11090A9FC0010B9F900D4D
:1016D0001A9F900D1124BE010E94892DD42ECE2E6A
:1016E000FE2FF60F2BC00E1B1109BE01681B790BD4
:1016F000069FC001079F900D169F900D1124BE01FB
:101700000E94892DDE2ED60ECE2E0FC00E1B110983
:101710000A9FC0010B9F900D1A9F900D1124BE01CE
:101720000E94892DCE2EC60EDE2EF42F07C0C42EA9
:1017300005C0F42FD42EC42E01C0F0E0D9011196BB
:10174000CC921197DC921296FC93DF91CF911F916E
:101750000F91FF90EF90DF90CF9008958AE090E096
:101760000C94BF2DAB01BC018AE090E00C94DD2D00
:101770008091E70180FF08C08EEF92E09F938F93E6
:101780000E945A070F900F908CE98093FF0180917F
:101790000002807886618068809300028FEF8093DA
:1017A0000102809302026091FF017091000280911A
:1017B0000102909102020C94B20B8091E70180FF2C
:1017C00008C087EE92E09F938F930E945A070F9074
:1017D0000F908091E70180FF0FC08091FF01817021
:1017E0001F928F938AEC92E09F938F930E945A07E7
:1017F0000F900F900F900F908091E70180FF10C025
:101800008091FF0186958F731F928F938FEA92E0EC
:101810009F938F930E945A070F900F900F900F90F5
:101820008091E70180FF19C09091FF01991F9927CE
:10183000991F20910002822F880F892B27FB2227D6
:1018400020F92F938F9385E992E09F938F930E94C5
:101850005A070F900F900F900F908091E70180FF33
:101860000EC0809101021F928F938BE792E09F93AD
:101870008F930E945A070F900F900F900F908091B6
:10188000E70180FF0EC0809102021F928F9381E6D4
:1018900092E09F938F930E945A070F900F900F90A2
:1018A0000F9008958091FF0180FF06C060E170E015
:1018B00087E092E00C94E10AE9E0F2E0DF011197A1
:1018C0001C92DF0112971C921082339682E0E9335A
:1018D000F807A1F7EBCFE9E0F2E0DF0111978C9375
:1018E000DF0112976C934083339692E0E933F90756
:1018F000A1F70C94520CCF92DF92EF92FF920F93CC
:101900001F93CF93DF9300D01F92CDB7DEB7F82E91
:10191000C92ED62EE42E0091FF01109100022091D5
:1019200001023091020200930302109304022093FB
:101930000502309306028091FF0180FF1EC09E01C8
:101940002F5F3F4F8F2D0E94EA0A80910302F0FA29
:1019500087F980930302F6942091040220782F29BE
:10196000C0FA27F920930402D0920502E092060201
:101970004B8169818A810E946B0C0F900F900F90B0
:10198000DF91CF911F910F91FF90EF90DF90CF905B
:1019900008950F931F93CF93DF93C82F192F062F0E
:1019A000D42F8091FF0180FF69C0982F9E779230DD
:1019B00029F48C2F912F0E947B0C1AC0282F26957A
:1019C0002F739EE3920F9F73943018F4D09102020C
:1019D0000FC0265C2F73293058F4881F8827881F72
:1019E00010910002C12FCC0FC82B17FB112710F943
:1019F0008091FF01C0FB87F98093FF01C69580911C
:101A0000000280788C2B10FB87F9809300020093F2
:101A10000102D09302026091FF0170910002809157
:101A20000102909102020E94B20B8091E70180FFB7
:101A300025C0809102021F928F93809101021F9214
:101A40008F939091FF01991F9927991F2091000270
:101A5000822F880F892B27FB222720F92F938F9322
:101A60008DE591E09F938F930E945A078DB79EB7A3
:101A700008960FB6F8949EBF0FBE8DBFDF91CF9131
:101A80001F910F9108952091FF01221F2227221FED
:101A900030910002432F440F842F822B37FB99276C
:101AA00090F90A9668E671E00E949D2D409102022D
:101AB000609101020C94C90C2091FF01221F222782
:101AC000221F30910002432F440F842F822B37FBBB
:101AD000992790F98A3091051CF4825A9E4F01C0D3
:101AE0000A9768E671E00E949D2D40910202609184
:101AF00001020C94C90C60910102862F90E08F3E88
:101B0000910514F46F5E01C06FEF8091FF01881F93
:101B10008827881F90910002292F220F97FB992771
:101B200090F940910202822B0C94C90C6091010241
:101B3000862F90E0419714F0615101C060E08091E0
:101B4000FF01881F8827881F90910002292F220FEC
:101B500097FB992790F940910202822B0C94C90CB3
:101B600040910202842F90E08F3E910514F44F5E65
:101B700001C04FEF8091FF01881F8827881F909137
:101B80000002292F220F97FB992790F960910102FB
:101B9000822B0C94C90C40910202842F90E0419753
:101BA00014F0415101C040E08091FF01881F882757
:101BB000881F90910002292F220F97FB992790F9F7
:101BC00060910102822B0C94C90C80914D0181110E
:101BD0000FC081E080934D0189E0809391008FB721
:101BE000F89493E09093990090ED909398008FBFB4
:101BF0000895809171008260809371008091E70167
:101C000080FF08C08CE491E09F938F930E945A0755
:101C10000F900F900895809171008D7F80937100D7
:101C20008091E70180FF08C08AE391E09F938F9342
:101C30000E945A070F900F9008959091FF0190FF16
:101C400051C09178811102C0926003C0883120F0A8
:101C50009E629093FF0105C08F73880F892B80933C
:101C6000FF016091FF01709100028091010290914B
:101C700002020E94B20B8091E70180FF10C08091A8
:101C8000FF0186958F731F928F9380EB91E09F9356
:101C90008F930E945A070F900F900F900F90809192
:101CA000FF01982F9E77923019F40E940B0E07C007
:101CB0008695825C8F73863110F40E94F90D8091B5
:101CC000FF01881F8827881F90910002292F220F6B
:101CD00097FB992790F94091020260910102822BB3
:101CE0000C94C90C08958091E70181608093E7010D
:101CF0008AE492E09F938F930E945A0781E0809339
:101D00004E018091E7010F900F9080FF08C084E39F
:101D100092E09F938F930E945A070F900F900E941A
:101D20001028811110C08091E70180FF08C08CE06D
:101D300092E09F938F930E945A070F900F900E94FA
:101D4000F1270E94B80B0E94AE0B6093FF017093C5
:101D5000000280930102909302026F3F7F4F8F4FEA
:101D60009F4F21F40E94B80B0E94520C8091FF01FA
:101D70008E77C1F48091E70180FF08C083EC91E089
:101D80009F938F930E945A070F900F900E94B80B59
:101D90000E94AE0B6093FF017093000280930102DA
:101DA000909302020E94DD0B0E94E50D8091FF01DD
:101DB00080FF04C086958F730C941D0E089580914A
:101DC000FF0186958F738F5F883108F081E00C9456
:101DD0001D0E8091FF01982F909590FB80F98093C4
:101DE000FF016091FF0170910002809101029091CA
:101DF00002020E94B20B8091E70180FF0FC0809128
:101E0000FF0181701F928F9382E891E09F938F93DF
:101E10000E945A070F900F900F900F908091FF0132
:101E200080FF04C086958F730C941D0E0E940B0ECC
:101E30002FEF80E792E0215080409040E1F700C012
:101E400000000C94520CCF93C82F80914B019091BD
:101E50004C010E943525EC2FF0E0E85DFC4FE49149
:101E6000F0E08E179F0710F10E941D2590934C0102
:101E700080934B01E0914A01F0E0E45DFC4F449116
:101E80008091FF01881F8827881F90910002292FC9
:101E9000220F97FB992790F960910102822B0E94F3
:101EA0007B0C80914A018F5F80934A01CF91089506
:101EB000CF93C82F80914801909149010E94352508
:101EC000EC2FF0E0EB5DFC4FE491F0E08E179F0704
:101ED000E8F00E941D2590934901809348014091AC
:101EE00002026091010280914601909147010E9497
:101EF0007B0C8091460190914701019668E671E064
:101F00000E94892D9093470180934601CF910895B7
:101F1000DF92EF92FF920F931F93CF93DF93D82E10
:101F200080914401909145010E943525ED2DE69563
:101F3000F0E0EB5DFC4FE491F0E08E179F07F0F1CD
:101F40000E941D25909345018093440107E012E013
:101F5000C0E0D0E088E6E82EFF24F39480914201AF
:101F6000909143018C0F9D1FB7010E94892D98010C
:101F700040910202609101020E94EA0A66960D5F9A
:101F80001F4FC03681E0D80749F70E94520C2091BC
:101F9000420130914301D0FE0BC0C901069668E6AC
:101FA00071E00E94892D909343018093420106C005
:101FB000215031093093430120934201DF91CF91A9
:101FC0001F910F91FF90EF90DF9008958F929F9255
:101FD000AF92BF92CF92DF92EF92FF920F931F9337
:101FE000CF93DF93C82F80FD03C09924939402C040
:101FF00099249A9480914001909141010E94352545
:10200000C695EC2FF0E0EE5DFC4FE491F0E08E170A
:102010009F0708F468C00E941D259093410180939A
:10202000400127E0E22E22E0F22E09E012E0C0E0BB
:10203000D0E037E0A32EB12CF80131971082F701E0
:102040001082F801108297E0C92ED12C812C80914A
:102050003F01880D87FD805F992787FD9095C81700
:10206000D907E9F4209102022C9DC0012D9D900D0D
:102070001124B5010E949D2D462F8091FF01881FDC
:102080008827881F90910002592F550F97FB992799
:1020900090F9970160910102852B0E94EA0A890C50
:1020A000F1E0CF1AD108C114D10489F6219683E05A
:1020B000E80EF11C0D5F1F4FC031D10509F0BCCFF8
:1020C0000E94520C80913F0191E0991206C081114B
:1020D00002C08DE006C0815004C090E001968F7070
:1020E000992780933F01DF91CF911F910F91FF902E
:1020F000EF90DF90CF90BF90AF909F908F9008951A
:102100009F92AF92BF92CF92DF92EF92FF920F9386
:102110001F93CF93DF93CDB7DEB7E0970FB6F89458
:10212000DEBF0FBECDBF182F80913D0190913E01C3
:102130000E943525E12FF0E0E15EFC4FE491F0E0F4
:102140008E179F0708F491C00E941D2590933E01B1
:1021500080933D018E010F5F1F4F6E0183E0C80E1B
:10216000D11CE12CF12C5801F60131971082D801D5
:102170001C92F6011082912C9091010180913C01FA
:10218000999E800D112487FD04C080311CF08FE0E2
:1021900001C080E0992787FD9095E816F906A1F423
:1021A0008091FF01881F8827881F90910002592F76
:1021B000550F97FB992790F9980140910202609181
:1021C0000102852B0E94EA0A9394F7E09F12D4CF74
:1021D0008FEFE81AF80A0D5F1F4FA3E0CA0ED11C5B
:1021E000B0E1EB16F10409F0BFCF69E072E08BE0DB
:1021F00090E09C012F703327AB0141505109F90148
:10220000EE0FFF1FE20FF31FEA0DFB1D2181DA0124
:102210002C939B01225031094081D9014C9322819A
:10222000FB01208301966D5F7F4F8B31910509F78C
:102230000E94520C9091010180913C01913049F42F
:102240008A3F2CF489EF80933C018FEF08C08150C6
:102250000AC087313CF086E180933C0181E08093A5
:10226000010103C08F5F80933C01E0960FB6F894A4
:10227000DEBF0FBECDBFDF91CF911F910F91FF90B9
:10228000EF90DF90CF90BF90AF909F9008951F92F6
:102290000F920FB60F9211242F933F934F935F939A
:1022A0006F937F938F939F93AF93BF93EF93FF931E
:1022B0008091FF0186958F739EE3980F9F739430F2
:1022C00020F482500E94230F23C09AE3980F9F733B
:1022D000933020F486500E94580F1AC097E3980F4D
:1022E0009F73963020F489500E94880F11C091E3AB
:1022F000980F9F73963020F48F500E94E60F08C00D
:102300009BE2980F9F73933018F485510E948010C0
:10231000FF91EF91BF91AF919F918F917F916F91BD
:102320005F914F913F912F910F900FBE0F901F9093
:102330001895809173010895089508959FB7F894B2
:10234000109252019FBF90913B02943009F058C007
:102350009091E9009F702091EC0020FF02C020E8DE
:1023600001C020E0292B93E09093E9009091EB00CD
:1023700090FF43C09091EE0097FF3FC090914F01B6
:10238000992321F09091E80095FF37C010924F01FA
:1023900096E03091E80035FD15C030913B023430B5
:1023A00061F53091EB0035FD28C0915021F481E0BA
:1023B00080934F0122C0EFE9FFE03197F1F700C0B1
:1023C0000000E7CF8093F1008091E80085FD0AC00E
:1023D0008091E80080FFFCCF8091E8008E778093A9
:1023E000E80006C08FB7F89491E0909352018FBF38
:1023F0002F702093E90080E008952F702093E9006A
:102400008FEF0895CF93DF9300D01F92CDB7DEB743
:1024100020913B02243021F523E029839B838A838A
:1024200082E08093E9008FEF9091E800815095FD64
:1024300006C095ED9A95F1F700008111F5CF8091D6
:10244000E80085FF0DC040E050E063E070E0CE01A1
:1024500001960E9484148091E8008E778093E800B2
:102460000F900F900F90DF91CF910895CF93DF934E
:10247000EC0180913B02843009F046C090910C0140
:102480009923D9F090910D019923B9F08093E90037
:102490008FEF9091E800815095FD06C095E19A95E7
:1024A000F1F700008111F5CF8091E80085FF2CC085
:1024B00040E050E060E270E017C081E08093E90006
:1024C0008FEF9091E800815095FD06C095ED9A95AB
:1024D000F1F700008111F5CF8091E80085FF14C06D
:1024E00040E050E068E070E0CE010E9484148091EA
:1024F000E8008E778093E80080E2FE01A3E5B1E07A
:1025000001900D928A95E1F7DF91CF9108958AE5C8
:1025100095E00E94C10680913A02811109C00E9493
:1025200016160E9473168091E20084608093E20088
:10253000089586E595E00E94C10610923A0208953A
:102540000895809150018F5F8093500162E30E9453
:102550007D2D911135C01092500180915201882338
:1025600079F180913B02843049F58091E9008F70C8
:102570009091EC0090FF02C090E801C090E0982B91
:1025800083E08093E9008091EB0080FF14C080918C
:10259000EE0087FF10C08091E80085FF03C0109215
:1025A000F100F9CF8091E80080FF05C08091E8003C
:1025B0008E778093E8009F709093E900109252010B
:1025C000089542E061EC81E00E94901542E061ECE8
:1025D00082E00E94901542E261EC83E00E94901537
:1025E00042E261EC84E00C94901580913D028330CE
:1025F00009F455C030F4813071F0823009F48EC096
:1026000008958A3009F47AC08B3009F460C08930AB
:1026100009F09CC020C080913C02813A09F096C02C
:102620008091E800877F8093E8008091400290913C
:102630004102892B21F060E080E090E003C060E27D
:1026400083E591E070E00E94CD148091E8008B77E3
:102650008093E800089580913C02813209F076C0B1
:102660008091400290914102009719F0039709F080
:102670006DC08091E800877F8093E8008091E8003A
:1026800082FD05C080913B028111F8CF5FC080912F
:10269000F100809373018091E8008B7753C08091A3
:1026A0003C02813A09F052C080914002909141026F
:1026B000892B09F04BC08091E800877F8093E80068
:1026C0008091E80080FFFCCF80910C0136C08091A2
:1026D0003C028132D9F58091400290914102892BD0
:1026E000A9F58091E800877F8093E8000E94C515D6
:1026F00080913E0280930C010C94B81E80913C02A4
:10270000813221F58091E800877F8093E8000E9464
:10271000C51580913F0280937401089580913C0219
:10272000813AA1F48091E800877F8093E80080914E
:10273000E80080FFFCCF809174018093F1008091CC
:10274000E8008E778093E8000C94C51508950895ED
:10275000089580917301809351011092730180E07C
:102760000E94E9090E94361A0C94B81E0C94A91311
:102770000E94A62580913902882329F00E94CC2549
:1027800081110C946E14089584B7877F84BF88E10B
:102790000FB6F89480936000109260000FBE90E036
:1027A00080E80FB6F89480936100909361000FBEAB
:1027B0008EE991E10E9409258EE495E00E94C10610
:1027C0000E94A7130E9459190E9416160E947316A0
:1027D0008091E20084608093E200789480913B02D3
:1027E0008430E1F78DE395E00E94C1060E945B19F9
:1027F00082E091E00E94ED188CE295E00E94C10613
:102800000E94A81380913B02853019F40E94B813EE
:10281000F9CF0E946519F6CF0E94E1258091510100
:102820008093730108950C940C14292F33272330BF
:102830003105A9F06CF42130310509F442C0223091
:10284000310509F043C084E790E020EA35E042C05A
:1028500021323105C9F02232310519F137C09927EB
:102860008130910541F08230910541F0892B71F55D
:10287000ECE9F5E005C0E0E9F5E002C0EEE5F5E0E1
:10288000849190E09F0126C0643000F5E62FF0E0CF
:10289000EE0FFF1FE45EFE4F2081318189E090E062
:1028A00019C0643098F4E62FF0E0DF01AA0FBB1FD7
:1028B000AC5EBE4F2D913C91E05FFE4F808190E079
:1028C00009C082E190E024E136E004C080E090E0BD
:1028D00020E030E0FA0131832083089580E189BD52
:1028E00082E189BD09B400FEFDCF8091D8008F7DC3
:1028F0008093D8008091E00082608093E000809116
:10290000E00081FDFCCF0895CF92DF92EF92FF921D
:102910000F931F93CF93DF937C018B01EA010E94F9
:10292000E615811131C0209731F088819981081B0B
:10293000190BE80EF91EC12CD12C0115110519F146
:102940008091E80085FD14C08091E8008E77809327
:10295000E800209741F0888199818C0D9D1D998315
:10296000888385E011C00E94E615882331F30CC0EE
:10297000F70181917F018093F10001501109FFEF70
:10298000CF1ADF0ADACF80E0DF91CF911F910F914C
:10299000FF90EF90DF90CF90089520914202309108
:1029A00043022617370748F06115710539F4209165
:1029B000E8002E772093E80001C0B901FC0120E077
:1029C00061157105B9F180913B02882309F440C07B
:1029D000853009F43FC08091E80083FD3DC08091BF
:1029E000E80082FF06C08091E80082FF26C080E0F8
:1029F00008958091E80080FFE3CF2091F30080915B
:102A0000F20090E0922B6115710551F0883091052C
:102A100038F421912093F100615071090196F3CFB0
:102A200021E0089709F020E08091E8008E778093FC
:102A3000E800C6CF2111C7CFD6CF80913B028823B3
:102A400039F0853039F08091E80083FFCCCF04C0A5
:102A500082E0089583E0089581E008952091420284
:102A6000309143022617370748F06115710539F494
:102A70002091E8002E772093E80001C0B901FC0105
:102A800020E061157105C1F180913B02882309F4B2
:102A900041C0853009F440C08091E80083FD3EC00C
:102AA0008091E80082FF06C08091E80082FF27C085
:102AB00080E008958091E80080FFE3CF2091F3004B
:102AC0008091F20090E0922B6115710559F08830E9
:102AD000910540F424912093F100319661507109E1
:102AE0000196F2CF21E0089709F020E08091E800FC
:102AF0008E778093E800C5CF2111C6CFD5CF8091C6
:102B00003B02882339F0853039F08091E80083FF5B
:102B1000CBCF04C082E0089583E0089581E008955A
:102B2000982F973058F59093E900981739F07091E5
:102B3000EC002091ED005091F00003C0242F762F7F
:102B400050E021FF19C03091EB003E7F3093EB0045
:102B50003091ED003D7F3093ED003091EB0031601E
:102B60003093EB007093EC002093ED005093F00055
:102B70002091EE0027FF07C09F5FD3CF8F70809317
:102B8000E90081E0089580E0089580913C0287FD8E
:102B900005C08091E80080FF0EC012C08091E8005F
:102BA00082FD05C080913B028111F8CF089580918C
:102BB000E8008B7708C080913B028111EACF08952D
:102BC0008091E8008E778093E80008958091E4007A
:102BD0009091E50045E62091EC0020FF21C0209176
:102BE000E80020FD21C020913B02222389F02530FE
:102BF00089F02091EB0025FD0FC02091E400309179
:102C0000E5002817390739F3415041F0C901E3CFF6
:102C100082E0089583E0089581E0089584E00895B6
:102C20002091E80022FFDFCF80E008950E94841603
:102C30000E948C16E0EEF0E0808181608083E8EDF8
:102C4000F0E080818F77808319BCA7EDB0E08C9194
:102C50008E7F8C9380818F7E808310923A020895BC
:102C60000F931F93CF93DF930E9484160E948C16BC
:102C7000C8EDD0E088818F778883888180688883D9
:102C800088818F7D888319BC10923B021092370295
:102C9000109239021092380200EE10E0F8018081A3
:102CA0008B7F808388818160888342E060E080E060
:102CB0000E949015E1EEF0E080818E7F8083E2EE4D
:102CC000F0E0808181608083808188608083F8016A
:102CD00080818E7F8083888180618883DF91CF911E
:102CE0001F910F910895E8EDF0E080818F7E808341
:102CF000E7EDF0E080818160808384E082BF81E045
:102D000080933A020C943016E8EDF0E080818E7FDB
:102D100080831092E20008951092DA001092E10090
:102D200008951F920F920FB60F9211242F933F9385
:102D30004F935F936F937F938F939F93AF93BF93C3
:102D4000EF93FF938091E10082FF0BC08091E2003E
:102D500082FF07C08091E1008B7F8093E1000E9499
:102D6000A1128091DA0080FF1FC08091D80080FFFF
:102D70001BC08091DA008E7F8093DA008091D900A9
:102D800080FF0DC080E189BD82E189BD09B400FEEC
:102D9000FDCF81E080933B020E94871205C019BCE1
:102DA00010923B020E9499128091E10080FF19C0AD
:102DB0008091E20080FF15C08091E2008E7F8093B9
:102DC000E2008091E20080618093E2008091D8006F
:102DD00080628093D80019BC85E080933B020E94FA
:102DE000B6138091E10084FF30C08091E20084FF3F
:102DF0002CC080E189BD82E189BD09B400FEFDCF10
:102E00008091D8008F7D8093D8008091E1008F7EE3
:102E10008093E1008091E2008F7E8093E2008091B8
:102E2000E20081608093E20080913702882311F0F4
:102E300084E007C08091E30087FF02C083E001C007
:102E400081E080933B020E9413148091E10083FF94
:102E500029C08091E20083FF25C08091E100877F37
:102E60008093E10082E080933B02109237028091D0
:102E7000E1008E7F8093E1008091E2008E7F80935D
:102E8000E2008091E20080618093E20042E060E035
:102E900080E00E9490158091F00088608093F0009F
:102EA0000E94A012FF91EF91BF91AF919F918F91DE
:102EB0007F916F915F914F913F912F910F900FBE36
:102EC0000F901F9018951F920F920FB60F9211241A
:102ED0002F933F934F935F936F937F938F939F9322
:102EE000AF93BF93CF93EF93FF93C091E900CF705F
:102EF0008091EC001092E9008091F000877F809330
:102F0000F00078940E949F171092E9008091F000E1
:102F100088608093F000C093E900FF91EF91CF911A
:102F2000BF91AF919F918F917F916F915F914F91E1
:102F30003F912F910F900FBE0F901F9018951F93E8
:102F4000CF93DF93CDB7DEB7AA970FB6F894DEBF65
:102F50000FBECDBFECE3F2E08091F100819322E05F
:102F6000E434F207C9F70E94F5128091E80083FF6C
:102F70001CC120913C0230913D02832F90E08A30A9
:102F8000910508F012C1FC01E25AFF4F0C94B12DDB
:102F9000203881F0223809F008C1809140028F70FA
:102FA0008093E9008091EB0085FB882780F91092DF
:102FB000E90006C080913802909139029111826037
:102FC0009091E800977F9093E8008093F100109231
:102FD000F100C5C0822F8D7F09F0E7C0222319F0D0
:102FE000223061F0E2C080913E02813009F0DDC004
:102FF000333009F080E08093390228C080913E028E
:10300000811124C0209140022F7009F4CEC020937A
:10301000E9008091EB0080FF19C08091EB00333014
:1030200011F4806211C080618093EB0081E090E038
:10303000022E01C0880F0A94EAF78093EA001092EA
:10304000EA008091EB0088608093EB001092E90029
:103050008091E800877F86C02111A7C010913E02B1
:103060001F778091E3008078812B8093E30080912B
:10307000E800877F8093E8000E94C5158091E800F2
:1030800080FFFCCF8091E30080688093E3001123F0
:1030900011F083E001C082E080933B0286C020589B
:1030A000223008F082C080913E0290913F028C3D18
:1030B00023E0920779F583E08A838AE289834FB718
:1030C000F894DE01139620E03EE051E2E32FF0E0B9
:1030D00050935700E49120FF03C0E295EF703F5FEB
:1030E000EF708E2F90E0EA3010F0C79601C0C096C6
:1030F0008D939D932F5F243149F74FBF8091E80056
:10310000877F8093E8006AE270E0CE0101960E941A
:10311000CD1414C0AE014F5F5F4F609140020E941A
:103120001514009709F441C02091E800277F2093EF
:10313000E800BC0189819A810E942E158091E800E7
:103140008B778093E80031C0203879F58091E800D2
:10315000877F8093E800809137028093F10080910F
:10316000E8008E778093E8000E94C5151EC02111EB
:103170001CC090913E029230C0F48091E800877F9D
:103180008093E800909337020E94C5158091370222
:10319000811104C08091E30087FF02C084E001C078
:1031A00081E080933B020E94E1128091E80083FF5E
:1031B0000AC08091E800877F8093E8008091EB004F
:1031C00080628093EB00AA960FB6F894DEBF0FBE24
:1031D000CDBFDF91CF911F91089590937801809397
:1031E00077010895E0917701F0917801309721F00F
:1031F0000190F081E02D099480E00895FF920F93F3
:103200001F93CF93DF938C01E0917701F0917801C8
:10321000309799F10280F381E02D09958091E701C3
:1032200082FF2BC080FF04C084EE96E00E94C1069E
:10323000E80180E2F82E0EED16E08091E70180FFB4
:103240000BC088811F928F931F930F930E945A0780
:103250000F900F900F900F90FA942196F110EDCFF0
:103260008091E70180FF09C08CED96E0DF91CF915E
:103270001F910F91FF900C94C106DF91CF911F9188
:103280000F91FF900895209175013091760182177A
:10329000930771F09093760180937501E091770127
:1032A000F0917801309721F00084F185E02D0994A8
:1032B00008950C94371A0E9414250E9416080E9443
:1032C000A5260E945B2B0C94912C5F926F927F92AB
:1032D0008F929F92AF92BF92CF92DF92EF92FF9226
:1032E0000F931F93CF93DF9300D000D01F92CDB7E1
:1032F000DEB70E945C089AE7C92E91E0D92E00E063
:1033000010E0AA24A394B12C502E802F0E94DF0934
:103310003C01F601E190F1906F01E826F926E114F5
:10332000F104B1F40F5F1F4F0530110569F78FEFFE
:1033300089838A831B820E941D258160782F9D834B
:103340008C8349815A816B818D810E943A1A41C0D8
:103350008091E70181FD0E94E80920E030E045010D
:10336000022E02C0880C991C0A94E2F7C4018E2137
:103370009F21892B41F129835A826820792081E09D
:10338000672809F480E08B830E941D258160782FD7
:103390009D838C8349815A816B818D810E943A1A69
:1033A00049815A816B817C818D810E94530AF80189
:1033B000EE0FFF1FE658FE4F8081918188259925E9
:1033C0009183808306C02F5F3F4F2E30310539F641
:1033D000A9CF0E940E25109179010E94F2181817AA
:1033E00071F10E94F218809379019091E70192FFA8
:1033F0000EC090FF0CC01F928F9386EF96E09F93B4
:103400008F930E945A070F900F900F900F9080910A
:1034100079010F900F900F900F900F90DF91CF9147
:103420001F910F91FF90EF90DF90CF90BF90AF90E2
:103430009F908F907F906F905F900C9411250F90CC
:103440000F900F900F900F90DF91CF911F910F91E0
:10345000FF90EF90DF90CF90BF90AF909F908F90B4
:103460007F906F905F9008950C94E90908950895F6
:1034700008950895CF93DF93CDB7DEB72B970FB69E
:10348000F894DEBF0FBECDBF4F83588769877A8718
:103490008B878A859B85892B31F05F3F11F080E017
:1034A00003C04F3FE1F781E0811107C04F8158858C
:1034B00069857A858B850E94530ADE01119686E024
:1034C000FD0111928A95E9F785E0FE01379601909A
:1034D0000D928A95E1F749815A816B817C818D81BA
:1034E0009E810E9484212B960FB6F894DEBF0FBEFA
:1034F000CDBFDF91CF910895CF93C82F882309F4D2
:10350000B0C08CEF8C0F813A48F48C2F0E940F2BA7
:103510008111A7C08C2F0E9401240CC080E28C0F67
:10352000883058F4C77081E001C0880FCA95EAF767
:103530000E94A724CF910C94E32488E58C0F873157
:1035400008F08FC0C83A09F445C0C93A09F445C02B
:10355000CA3A09F445C0CD3B09F445C0CE3B09F455
:1035600045C0CB3A09F445C0CC3A09F445C0CD3A40
:1035700009F445C0CE3A09F445C0CF3A09F445C034
:10358000C13B09F445C0C03B09F445C0C23B09F446
:1035900045C0C33B09F445C0C43B09F445C0C53B25
:1035A00009F445C0C63B09F445C0C73B09F445C012
:1035B000C83B09F445C0C93B09F445C0CA3B09F4FE
:1035C00045C0CB3B09F445C0CC3B09F045C08AE27D
:1035D00092E044C082EE90E041C089EE90E03EC0AF
:1035E0008AEE90E03BC08FE690E038C080E790E044
:1035F00035C085EB90E032C086EB90E02FC083EBC6
:1036000090E02CC084EB90E029C087EB90E026C0CE
:103610008CEC90E023C08DEC90E020C083E891E03A
:103620001DC08AE891E01AC082E991E017C084E9E0
:1036300091E014C081E292E011C083E292E00EC0FA
:1036400084E292E00BC085E292E008C086E292E05C
:1036500005C087E292E002C080E090E0CF910C9438
:103660004319CF9108958823E9F09CEF980F913A80
:1036700018F40E9452240DC090E2980F983058F42C
:10368000877091E001C0990F8A95EAF7892F0E940F
:10369000AD240C94E324885A873120F480E090E034
:1036A0000C9443190895882321F00E94A7240C94B8
:1036B000E3240895882321F00E94AD240C94E32490
:1036C0000895CF92DF92EF92FF920F931F93CF93C3
:1036D000DF93CDB7DEB728970FB6F894DEBF0FBEE5
:1036E000CDBF8C0185E0F801DE01119601900D92AD
:1036F0008A95E1F7F80140813181F2802581229598
:103700002F7083819481892B31F03F3F31F481E028
:103710004F3F19F403C081E001C080E080FD0FC37A
:1037200049833A8389819A812F830E94BF239E8394
:1037300088870E94BE230E94E6223E81E32FE29505
:10374000EF70F0E0E859FF4F2F8168850C94B12DA0
:10375000832F807F132F1F70882311F01295107F05
:10376000FF2059F0112309F429C2812F68870E9494
:10377000BA240E94E324688521C2862F0E94331B4D
:10378000112309F4DCC2812F0E94C02428960FB6B1
:10379000F894DEBF0FBECDBFDF91CF911F910F9187
:1037A000FF90EF90DF90CF900C94E324832F807FE5
:1037B000932F9F70E92E803219F0E29480EFE82277
:1037C000662319F0613001F129C0FF20A9F08E2D88
:1037D000222349F1213039F528960FB6F894DEBF3F
:1037E0000FBECDBFDF91CF911F910F91FF90EF9052
:1037F000DF90CF900C94CA24222319F0213009F4D1
:103800009EC20E94CD242CC0FF20E9F0233008F096
:1038100096C20E94A4248E2129F022C0FF20F1F03C
:10382000211115C08E2D28960FB6F894DEBF0FBE5D
:10383000CDBFDF91CF911F910F91FF90EF90DF905F
:10384000CF900C94531B223008F079C209C0F801C4
:10385000858180FFB3C18F708583E4CF2111C2C100
:103860008E2D30C1832F86958695837009F067C2AF
:10387000FF2021F0862F932F937002C080E090E00C
:1038800028960FB6F894DEBF0FBECDBFDF91CF9163
:103890001F910F91FF90EF90DF90CF900C94431900
:1038A000832F837009F076C0F11049C2262F22952C
:1038B00026952770220F220F862F8F70C82ED12CAD
:1038C000E12CF12C022E04C0CC0CDD1CEE1CFF1CE4
:1038D0000A94D2F764FF10C06FE070E080E090E0DF
:1038E00004C0660F771F881F991F2A95D2F760952D
:1038F00070958095909503C060E070E0CB01232F18
:10390000269526952370422F50E042305105D1F084
:103910004330510559F16C297D298E299F29413069
:10392000510541F128960FB6F894DEBF0FBECDBF0A
:10393000DF91CF911F910F91FF90EF90DF90CF908B
:103940000C94FB226C297D298E299F2928960FB67D
:10395000F894DEBF0FBECDBFDF91CF911F910F91C5
:10396000FF90EF90DF90CF900C940D230E94FB22EC
:10397000C701B60128960FB6F894DEBF0FBECDBFC3
:10398000DF91CF911F910F91FF90EF90DF90CF903B
:103990000C94E922FF2019F0832F817001C08695D5
:1039A000882309F4CCC1262F229526952770220F53
:1039B000220F862F8F70C82ED12CE12CF12C022ED5
:1039C00004C0CC0CDD1CEE1CFF1C0A94D2F764FF73
:1039D00010C06FE070E080E090E004C0660F771FD9
:1039E000881F991F2A95D2F76095709580959095BC
:1039F00003C060E070E0CB01232F2695269523704D
:103A0000422F50E042305105D1F04330510559F179
:103A10006C297D298E299F294130510541F1289635
:103A20000FB6F894DEBF0FBECDBFDF91CF911F91CF
:103A30000F91FF90EF90DF90CF900C949A236C2918
:103A40007D298E299F2928960FB6F894DEBF0FBED8
:103A5000CDBFDF91CF911F910F91FF90EF90DF903D
:103A6000CF900C94AC230E949A23C701B6012896EC
:103A70000FB6F894DEBF0FBECDBFDF91CF911F917F
:103A80000F91FF90EF90DF90CF900C948823603FD0
:103A900049F118F4603E48F48CC0623F09F451C00B
:103AA000E0F1633F09F461C084C0162F1F70832FBB
:103AB0008F71FF2021F00E943323812FB4CE0E940A
:103AC0004E23812F28960FB6F894DEBF0FBECDBFD0
:103AD000DF91CF911F910F91FF90EF90DF90CF90EA
:103AE0000C945A1BFF20A9F0223008F028C1832F24
:103AF0008F7128960FB6F894DEBF0FBECDBFDF9151
:103B0000CF911F910F91FF90EF90DF90CF900C9489
:103B10006D23233008F013C1EACFFF20A1F0832FDB
:103B20008F7128960FB6F894DEBF0FBECDBFDF9120
:103B3000CF911F910F91FF90EF90DF90CF900C9459
:103B40003323FF2061F3832F8F7128960FB6F894EB
:103B5000DEBF0FBECDBFDF91CF911F910F91FF90C0
:103B6000EF90DF90CF900C944E23FF2091F0832FA5
:103B70008F7128960FB6F894DEBF0FBECDBFDF91D0
:103B8000CF911F910F91FF90EF90DF90CF900C9409
:103B9000242328960FB6F894DEBF0FBECDBFDF9169
:103BA000CF911F910F91FF90EF90DF90CF900C94E9
:103BB0001F23FF20A1F0222309F4B1CF862F2896DE
:103BC0000FB6F894DEBF0FBECDBFDF91CF911F912E
:103BD0000F91FF90EF90DF90CF900C947C1A2223EE
:103BE00009F4B1CF862F28960FB6F894DEBF0FBE2A
:103BF000CDBFDF91CF911F910F91FF90EF90DF909C
:103C0000CF900C94331B432F4F70C8010E9448265D
:103C100028960FB6F894DEBF0FBECDBFDF91CF91CF
:103C20001F910F91FF90EF90DF90CF900C94312275
:103C3000F11085C0662341F0832F8F70843021F00E
:103C4000307F862F8F70382B932F9F70492F50E035
:103C50004230510509F440C0BCF44115510561F1F1
:103C60004130510509F06BC028960FB6F894DEBFBD
:103C70000FBECDBFDF91CF911F910F91FF90EF90BD
:103C8000DF90CF900C94CC2C43305105A9F14430F7
:103C9000510509F054C0862F28960FB6F894DEBF60
:103CA0000FBECDBFDF91CF911F910F91FF90EF908D
:103CB000DF90CF900C94652D28960FB6F894DEBF58
:103CC0000FBECDBFDF91CF911F910F91FF90EF906D
:103CD000DF90CF900C94A22C28960FB6F894DEBFFC
:103CE0000FBECDBFDF91CF911F910F91FF90EF904D
:103CF000DF90CF900C94FB2C28960FB6F894DEBF83
:103D00000FBECDBFDF91CF911F910F91FF90EF902C
:103D1000DF90CF900C942D2D432F4F70C801289623
:103D20000FB6F894DEBF0FBECDBFDF91CF911F91CC
:103D30000F91FF90EF90DF90CF900C94630728963F
:103D40000FB6F894DEBF0FBECDBFDF91CF911F91AC
:103D50000F91FF90EF90DF90CF9008950E94C724BD
:103D60000E9496240E94E32480E090E00C94431982
:103D70000E94B7240C94AE1E0E94BF23292F2295C7
:103D80002F7030E02C3031054CF42A3031056CF4C2
:103D9000225031092230310590F407C02C30310512
:103DA00051F02F30310539F00AC0803E10F0803FCD
:103DB00031F481E0089593FB882780F9089580E02D
:103DC0000895CF93DF9300D000D01F92CDB7DEB718
:103DD0000F900F900F900F900F90DF91CF9108955B
:103DE000CF93DF9300D000D000D0CDB7DEB72696BA
:103DF0000FB6F894DEBF0FBECDBFDF91CF9108950F
:103E00001F93CF93DF93C091840116E080918501C9
:103E1000C81799F0D0E01C9FF0011D9FF00D1124F0
:103E2000EA57FE4F4081518162817381848195817F
:103E30000E94F01E2196C770E9CFDF91CF911F91AC
:103E400008954091B6015091B7016091B801709109
:103E5000B9018091BA019091BB010C94F01ECF93EF
:103E60008091BB0182958F7009F05FC08091B8018D
:103E7000882309F45AC020918401A09185016091A2
:103E8000B6017091B7018091B9019091BA0131E00A
:103E90006F3F09F030E0B32FC6E02A1709F445C0A0
:103EA000009721F07F3F21F44B2F03C041E001C078
:103EB00040E030E040FD35C0C29FF001C39FF00DEF
:103EC0001124EA57FE4F418174132BC040816413C3
:103ED00028C04281411125C04381548148175907A8
:103EE00010F441505109481B590B443B5105C8F48B
:103EF0008091BB018F7080618093BB0186E0829FBF
:103F0000F001839FF00D1124E557FE4F80818F70E3
:103F10008061808386EB91E00E94611BCF910C94BD
:103F2000001F2F5F3F4F2770B8CFCF910895CF92DA
:103F3000DF92EF92FF920F931F93CF93DF93CDB752
:103F4000DEB762970FB6F894DEBF0FBECDBF8C010F
:103F500085E0F801DE011D9601900D928A95E1F74A
:103F6000D8014C9111965C91119712966C91129711
:103F70001396ED90FC9014977091B601E091B70103
:103F80002091B9013091BA012115310531F0EF3F8F
:103F900031F481E07F3F19F403C081E001C080E08B
:103FA000B82FB170CB2E80FD6CC1D090B801DD2050
:103FB00009F4F5C0F091BB01E216F30638F0C70131
:103FC000821B930B843B910548F09BC02095309554
:103FD0002E0D3F1D243B310508F093C08F2F807FAD
:103FE00009F052C0E51314C0741312C0D62E61112B
:103FF0000FC0FF70F061F093BB010E94211F86EBA0
:1040000091E00E94611B8091BB01F80185836CC126
:10401000EF2831F05F3F31F481E04F3F19F403C0E6
:1040200081E001C080E080FD03C081E0862701C0FF
:1040300080E0F82FF170FF2E80FF1CC0809184017A
:104040002091850136E0821709F428C190E0389F5D
:10405000F001399FF00D1124EA57FE4F718157137B
:1040600006C07081471303C07281671303C00196B5
:104070008770E9CFD62E662309F436C18091BB0143
:1040800081608093BB0153C0E51308C0741306C060
:10409000611104C0D8011596FC93AEC04D875E87B0
:1040A0008D859E856A8B0E94BC1E6A89882329F1B2
:1040B000D62E662311F12091BB01822F82958F703D
:1040C00090E002970CF460C08091B6019091B70126
:1040D00098878F831986FB86EA862C87CE01079600
:1040E00051C0E51731F14D875E878D859E856A8BBE
:1040F0000E94BC1E6A8981112EC0C8010E94611BEA
:10410000A4C08F2F807F69F77E2DF98AE88A89897C
:104110000E94E11E86EB91E00E94611BE6EBF1E05C
:1041200086E0DF011D928A95E9F70E94211FD12CBC
:10413000DBC07413D8CF6111D6CFD8011596FC938C
:10414000C8010E94611BE6EBF1E086E0DF011D92F1
:104150008A95E9F7C9C0D62E662379F22091BB0172
:10416000822F82958F7090E0029774F08091B60153
:104170009091B7019A8389831B82FD82EC822E8302
:10418000CE0101960E94611B86E0F801A6EBB1E02A
:1041900001900D928A95E1F70E942F1F6FC0E216E1
:1041A000F30628F0C701821B930B9C0104C02095E5
:1041B00030952E0D3F1D243B310508F052C0D62E00
:1041C000662309F49ACFE5132CC074132AC080919A
:1041D000BB0180FD1DC0982F92959F70C9F0D8013A
:1041E00015968C9315979F3039F09F5F9295907F2D
:1041F0008F70892B15968C93C8010E94611B86E0F5
:10420000F801A6EBB1E001900D928A95E1F736C076
:1042100086E0F801A6EBB1E001900D928A95E1F7F6
:1042200063C04D875E878D859E850E94BC1E882356
:1042300079F086E0F801A6EBB1E001900D928A9545
:10424000E1F70E942F1F0E94211FDD24D3944CC050
:104250008091BB0181608093BB01C8010E94611BFA
:1042600043C07E2DF98AE88A89890E94E11EE6EB27
:10427000F1E086E0DF011D928A95E9F70E94211F97
:1042800033C0662309F439CF4D875E878D859E85BF
:104290000E94BC1E882309F430CFCBCF4D875E87A8
:1042A0008D859E850E94BF23292F22952F7030E097
:1042B000223031052CF49F7041F0811106C00CC0F2
:1042C000243031052CF49F7049F4805E883020F052
:1042D000C8010E94611BCF2CDC2C06C0D8011596AA
:1042E0009C91907F91F7F8CF8D2D62960FB6F89440
:1042F000DEBF0FBECDBFDF91CF911F910F91FF9019
:10430000EF90DF90CF9008951F93CF93DF93CDB7B9
:10431000DEB72C970FB6F894DEBF0FBECDBF4F832C
:10432000588769877A878B879C87CE0107960E947A
:10433000971F8823C1F02F8138858A859B85892B1B
:1043400031F03F3F11F080E003C02F3FE1F781E003
:10435000811147C04F81588569857A858B859C85F9
:104360000E94F01E3EC086E0FE013796DE011196E7
:1043700001900D928A95E1F7FF81E8854A855B857A
:104380004115510531F0EF3F31F481E0FF3F19F461
:1043900003C081E001C080E080FD23C02091850141
:1043A00030E0C9010196877099276091840170E01F
:1043B00086179707F1F1F983EA835D834C8396E0D2
:1043C000929FD001939FB00D1124AA57BE4FFE01BA
:1043D000319601900D929A95E1F7809385010E94A4
:1043E000001F16E08091840190918501891779F171
:1043F000189FC00111248A579E4F0E94971F88233F
:1044000031F1E09184011E9FF0011124EA57FE4F23
:104410004081518162817381848195810E94F01E67
:104420008091840190E001968770992780938401A0
:10443000D9CF0E94B81E1092850110928401E6EB3C
:10444000F1E086E0DF011D928A95E9F7CACF2C964C
:104450000FB6F894DEBF0FBECDBFDF91CF911F9195
:104460000895DF92EF92FF920F931F93CF93DF9304
:104470009C01009709F48AC0E12CF12CDD24D3942F
:10448000E9012196F9018491853709F462C058F455
:10449000843708F04EC0843008F069C08130D1F014
:1044A000823071F173C0883709F45CC050F48637EC
:1044B00009F454C0873709F069C08E2D0E94B424D6
:1044C00053C09CE7980F903708F060C08F770E9428
:1044D000331B4FC089010E5F1F4FFE01C49180E264
:1044E0008C0F883048F4C7708D2D01C0880FCA9595
:1044F000EAF70E94BA2415C08C2F0E947C1A13C0C0
:1045000089010E5F1F4FFE01C49180E28C0F88303D
:1045100060F4C7708D2D01C0880FCA95EAF70E941C
:10452000C0240E94E324E80124C08C2F0E94331B86
:10453000FACF2E5F3F4FFE01C491CC2341F08FE9AB
:104540009FE00197F1F700C00000C150F6CFE901EC
:1045500010C0FE01F490E90122960BC00E94A42431
:10456000E82E07C00E94B7240E94E32402C00E94E4
:104570007C1A9F2D992341F0EFE9FFE03197F1F785
:1045800000C000009150F6CF9E017ACFDF91CF910D
:104590001F910F91FF90EF90DF9008956093C001FD
:1045A0007093C1018093C2019093C3010E940F25B3
:1045B0000C94AE1E6093BC017093BD018093BE014C
:1045C0009093BF010E9410250C94AE1E08950C9488
:1045D000CE220F931F930091C0011091C101209131
:1045E000C2013091C301602B712B822B932B1F9141
:1045F0000F910C94CE220F931F930091C001109144
:10460000C1012091C2013091C30160237123822333
:1046100093231F910F910C94CE220F931F9300911F
:10462000C0011091C1012091C2013091C3016027E6
:104630007127822793271F910F910C94CE2260E05F
:1046400070E0CB010C94DA2241E050E060E070E0D1
:1046500004C0440F551F661F771F8A95D2F7CB0100
:10466000BA010C94DA2241E050E060E070E004C04E
:10467000440F551F661F771F8A95D2F78091BC01A2
:104680009091BD01A091BE01B091BF01482B592B63
:104690006A2B7B2BCB01BA010C94DA2241E050E06B
:1046A00060E070E004C0440F551F661F771F8A95B5
:1046B000D2F740955095609570958091BC0190918E
:1046C000BD01A091BE01B091BF01482359236A23C7
:1046D0007B23CB01BA010C94DA2241E050E060E088
:1046E00070E004C0440F551F661F771F8A95D2F7EC
:1046F0008091BC019091BD01A091BE01B091BF011C
:10470000482759276A277B27CB01BA010C94DA2264
:104710000F931F930091BC011091BD012091BE0128
:104720003091BF01602B712B822B932B1F910F9126
:104730000C94DA220F931F930091BC011091BD01DC
:104740002091BE013091BF01602371238223932306
:104750001F910F910C94DA220F931F930091BC01CB
:104760001091BD012091BE013091BF0160277127DA
:10477000822793271F910F910C94DA220895CF92EC
:10478000DF92EF92FF920F931F93CF93DF93EC0191
:10479000C090C001D090C101E090C201F090C3016F
:1047A0008091BC019091BD01A091BE01B091BF016B
:1047B000C82AD92AEA2AFB2A0FE110E0B701A6018C
:1047C000002E04C076956795579547950A94D2F7C1
:1047D00040FF07C0BE01802F0E941E268130910538
:1047E00039F40150110950F7BE0180E00E941E26E5
:1047F000DF91CF911F910F91FF90EF90DF90CF90BD
:10480000089590910C01992361F190910D019923E4
:1048100041F1982F9695969596959F3188F4E09161
:104820000E01F0910F01E90FF11D877021E030E0DA
:1048300001C0220F8A95EAF78181822B8183089536
:104840009091E70190FF2DC01F928F938FE197E029
:104850009F938F930E945A070F900F900F900F9085
:10486000089540910E0150910F0120E030E09FEF3C
:10487000FA01E20FF31F6281681799F09F3F19F464
:10488000611101C0922F2F5F3F4F2E31310581F70B
:104890009F3F39F0FA01E90FF11D97FDFA958283E8
:1048A0000895089590910C01992369F190910D015B
:1048B000992349F1982F9695969596959F3190F466
:1048C000E0910E01F0910F01E90FF11D877021E0D9
:1048D00030E001C0220F8A95EAF7209581812823D4
:1048E000218308959091E70190FF1FC01F928F933D
:1048F00081E097E09F938F930E945A070F900F904B
:104900000F900F90089540910E0150910F0120E0FB
:1049100030E0FA01E20FF31F9281981301C0128276
:104920002F5F3F4F2E313105A1F7089581E090E0D0
:10493000E0910E01F0910F01E80FF91F108201962E
:1049400080329105A9F708958091E601089590912C
:10495000E601982B9093E601089580959091E601E9
:1049600098239093E60108958093E60108951092AC
:10497000E60108959091E501982B9093E501089543
:1049800080959091E50198239093E5010895109208
:10499000E50108958093C40108951092C40108951B
:1049A00040910E0150910F0120E030E080E0FA01CB
:1049B000E20FF31F918191118F5F2F5F3F4F2F31D6
:1049C0003105A9F70895E0910E01F0910F01809152
:1049D000E6018083E0910E01F0910F0180819091BA
:1049E000E501892B80839091C401992361F0E091C6
:1049F0000E01F0910F018081892B80830E94D024C9
:104A000081111092C40180910E0190910F010C94BC
:104A1000FE18909325018093240108950895089528
:104A200008950C94341A089582E084BD93E095BDF6
:104A30009AEF97BD80936E0008952FB7F8948091F8
:104A4000E8019091E901A091EA01B091EB012FBF3B
:104A500008952FB7F8946091E8017091E901809171
:104A6000EA019091EB012FBF0895CF92DF92EF9270
:104A7000FF920F931F932FB7F8944091E801509144
:104A8000E9016091EA017091EB012FBF6A017B019E
:104A9000EE24FF248C0120E030E0C016D106E206AF
:104AA000F30610F441505109481B590BCA011F91DC
:104AB0000F91FF90EF90DF90CF9008951F920F928B
:104AC0000FB60F9211248F939F93AF93BF93809152
:104AD000E8019091E901A091EA01B091EB01019602
:104AE000A11DB11D8093E8019093E901A093EA0113
:104AF000B093EB01BF91AF919F918F910F900FBE3B
:104B00000F901F9018950E941616F8942FEF87EAC1
:104B100091E6215080409040E1F700C0000087E01E
:104B200090EBDC018093460290934702A0934802E9
:104B3000B09349022CE088E190E00FB6F894A89574
:104B4000809360000FBE20936000FFCF80913B02F6
:104B5000843009F11092EC0120E488E190E00FB676
:104B6000F894A895809360000FBE2093600083B7EF
:104B7000817F846083BF83B7816083BF7894889589
:104B800083B78E7F83BF88E10FB6F894809360006F
:104B9000109260000FBE0895CF930E94381A0E94B1
:104BA0005C080E94391AC0E08C2F0E94DF09892B13
:104BB00029F4CF5FC530C1F780E001C081E0CF911B
:104BC00008950E94361A0E94B81E0C94912C1F92D0
:104BD0000F920FB60F9211248F939F93AF93BF93B1
:104BE0008091EC01811113C08091E8019091E9015D
:104BF000A091EA01B091EB014196A11DB11D8093F6
:104C0000E8019093E901A093EA01B093EB01BF9111
:104C1000AF919F918F910F900FBE0F901F9018959D
:104C20002EE0929FF0011124E80FF11DE051FF4F9B
:104C30009491892F8F7092959F700895CF93C82F6C
:104C4000CB010E941026482F50E080E1989F9001F0
:104C50001124242B352B2038310519F480E090E005
:104C600015C09770E92FF0E088E0C89FE00DF11DB6
:104C7000112484E0EE0FFF1F8A95E1F7E40FF51F82
:104C8000EE0FFF1FE050F84985919491CF91089560
:104C900080E090E00895BF92CF92DF92EF92FF9272
:104CA0000F931F93CF93DF938C01B12CEE24E394E9
:104CB000F12C8B2D0E94DF096C01C0E0D0E0970140
:104CC0000C2E02C0220F331F0A94E2F72C213D2143
:104CD000232BB1F06C2F7B2D80E00E941E269C01BF
:104CE0008017910759F0832F807E932F907C11F0CD
:104CF000803A31F430E02017310711F481E009C027
:104D00002196CE30D105D9F6B39485E0B812D1CF33
:104D100080E0DF91CF911F910F91FF90EF90DF9096
:104D2000CF90BF900895CF93DF93EC018CE290E099
:104D30000E944B26882329F0CE01DF91CF910C945D
:104D40004B2680E0DF91CF910895CF930E941028E9
:104D5000811102C00E94F12784E497E00E94C106FD
:104D6000C5E6C15049F00E945C088FE39CE90197B9
:104D7000F1F700C00000F5CF8DE397E00E94C10677
:104D800089E290E00E949326811129C18AE290E095
:104D90000E94932681110E94F12785E090E00E94F5
:104DA000932681110E9483250E9413250E941B28AF
:104DB0008093E70187E090E00E9493268823B1F179
:104DC0008BE190E00E949326882351F09091E701B7
:104DD00091FB882780F921E0822780FB91F924C08C
:104DE0008EE090E00E949326882351F09091E70195
:104DF00092FB882780F921E0822780FB92F914C07A
:104E000080E190E00E9493269091E701882341F091
:104E100093FB882780F921E0822780FB93F904C067
:104E2000892F809580FB90F99093E7018091E701AD
:104E30000E941F280E942D288093440280EE90E05B
:104E40000E949326882341F080914402982F9095E8
:104E500090FB80F98093440289E390E00E949326BE
:104E6000882359F09091440291FB882780F921E032
:104E7000822780FB91F99093440282EE90E00E9499
:104E80009326882359F09091440292FB882780F959
:104E900021E0822780FB92F99093440286EE90E015
:104EA0000E949326882359F09091440293FB88270F
:104EB00080F921E0822780FB93F99093440283EEEE
:104EC00090E00E949326882359F09091440294FB2D
:104ED000882780F921E0822780FB94F9909344028F
:104EE00085E390E00E949326882359F09091440234
:104EF00095FB882780F921E0822780FB95F9909324
:104F0000440281E390E00E949326882359F0909117
:104F1000440296FB882780F921E0822780FB96F9DE
:104F20009093440281E190E00E949326882359F0F7
:104F30009091440297FB882780F921E0822780FB2B
:104F400097F990934402809144020E943128809105
:104F5000440287FB882780F980930D0187E290E067
:104F60000E949326C82F8EE190E00E949326811123
:104F7000C2608FE190E00E9493268111C46080E2BC
:104F800090E00E9493268111C86081E290E00E9427
:104F900093268111C06182E290E00E9493268111E4
:104FA000C06283E290E00E9493268111C06484E293
:104FB00090E00E949326882311F0C06802C0CC23A1
:104FC00029F08C2F0E9428286C2F03C00E942428CF
:104FD000682F70E080E090E0CF910C94E722CF91B1
:104FE00008956DEE7EEF80E090E00E94F72D60E086
:104FF00082E090E00E94E92D60E083E090E00E9472
:10500000E92D60E084E090E00E94E92D60E085E019
:1050100090E00E94E92D60E086E090E00C94E92D9C
:1050200080E090E00E94C52D21E08D3E9E4F09F06A
:1050300020E0822F089582E090E00C94B72D682F35
:1050400082E090E00C94E92D83E090E00C94B72D81
:10505000682F83E090E00C94E92D84E090E00C94BC
:10506000B72D682F84E090E00C94E92D86E090E065
:105070000C94B72D682F86E090E00C94E92DCF9327
:10508000C82F1F928F932FE537E03F932F930E94F5
:105090005A0761E070E080E090E004C0660F771F7F
:1050A000881F991FCA95D2F70E94E7220F900F9090
:1050B0000F900F90CF910C94B81ECF938B3109F4C1
:1050C00009C208F049C08E3009F417C200F58730D4
:1050D00009F4E7C1A8F4863009F095C28091E70190
:1050E000817F8E7F8093E70184E697E00E94C1066E
:1050F00085EF9BE00E94C10681E08093ED01CFC166
:10510000883009F45BC08B3009F4C5C17CC28131A1
:1051100009F461C220F4803109F402C274C28631FC
:1051200009F418C2893109F06EC289E69BE00E9439
:10513000C10680E49BE00E94C1068CEF9AE00E94C9
:10514000C1068FEC9AE00E94C10680E69AE00E94B8
:10515000C10685E39AE0A1C1853309F44EC268F423
:10516000873209F44AC228F48E3108F44CC28D51BA
:1051700047C2893209F441C246C2833438F48A33C3
:1051800008F03DC2883309F486C13DC2833409F476
:1051900034C2883409F037C20E94B81E84EE9BE006
:1051A0000E94C1069FEF23ED80E391502040804094
:1051B000E1F700C000000E94832571C189EF9BE0E8
:1051C0000E94C10682E999E00E94C1060E9424283B
:1051D0001F928F938FE899E09F938F930E945A07B5
:1051E0008DE899E00E94C1060E941B28C82F8AE71B
:1051F00099E00E94C1061F92CF9325E739E03F93C3
:105200002F930E945A0783E799E00E94C10689E61E
:1052100099E00E94C1068C2F81701F928F9326E621
:1052200039E03F932F930E945A0784E699E00E9449
:10523000C1068AE599E00E94C106C1FB882780F972
:105240001F928F9327E539E03F932F930E945A07CF
:1052500085E599E00E94C10689E499E00E94C106B3
:10526000C2FB882780F91F928F9326E439E03F9391
:105270002F930E945A0784E499E00E94C1068BE3B1
:1052800099E00E94C106C3FBCC27C0F91F92CF93BF
:1052900088E399E09F938F930E945A0786E399E0F1
:1052A0000E94C1060E942D28C82F82E299E00E9428
:1052B000C1061F92CF932DE139E03F932F930E94B7
:1052C0005A078BE199E00E94C10682E099E00E94B2
:1052D000C1068C2F81701F928F932FEF38E03F9380
:1052E0002F930E945A078DB79EB780960FB6F894F9
:1052F0009EBF0FBE8DBF8DEF98E00E94C10686EE67
:1053000098E00E94C106C1FB882780F91F928F9305
:1053100023EE38E03F932F930E945A0781EE98E0E6
:105320000E94C1068FEC98E00E94C106C2FB88274C
:1053300080F91F928F932CEC38E03F932F930E94BB
:105340005A078AEC98E00E94C10688EB98E00E9418
:10535000C106C3FB882780F91F928F9325EB38E0A5
:105360003F932F930E945A0783EB98E00E94C10657
:1053700089EA98E00E94C106C4FB882780F91F9241
:105380008F9326EA38E03F932F930E945A0784EACE
:1053900098E00E94C10682E998E00E94C106C5FB20
:1053A000882780F91F928F932FE838E03F932F933F
:1053B0000E945A078DE898E00E94C10681E798E0B4
:1053C0000E94C106C6FB882780F91F928F932EE6A4
:1053D00038E03F932F930E945A078CE698E00E9492
:1053E000C10684E698E00E94C106C7FBCC27C0F93D
:1053F0001F92CF9381E698E09F938F930E945A0764
:105400008FE598E00E94C1060E943628C82F88E4E4
:1054100098E00E94C1061F92CF9323E438E03F93A7
:105420002F930E945A078DB79EB780960FB6F894B7
:105430009EBF0FBE8DBF81E498E00E94C10687E346
:1054400098E00E94C1068C2F81701F928F9324E3F5
:1054500038E03F932F930E945A0782E398E00E941E
:10546000C10689E298E00E94C106C6951F92CF93BB
:1054700086E298E09F938F930E945A0784E298E017
:105480000E94C1068DB79EB708960FB6F8949EBFCE
:105490000FBE8DBF04C08FE797E00E94C106C1E038
:1054A000B7C08091E701C82FC17080FF09C087EDA8
:1054B0009BE00E94C1068091E701817F8E7F44C0FE
:1054C0008BEC9BE00E94C1068091E7018160809394
:1054D000E701E5CF8091E70181FBCC27C0F991E09E
:1054E000C927C0FB81F98093E701CC2319F08EEB2B
:1054F0009BE025C080EB9BE0D0CF8091E70182FB51
:10550000CC27C0F991E0C927C0FB82F98093E7015D
:10551000CC2319F081EA9BE012C081E99BE0BDCF6A
:105520008091E70183FBCC27C0F991E0C927C0FB3C
:1055300083F98093E701CC2351F085E89BE00E943A
:10554000C1068091E70181608093E70161C088E72F
:105550009BE0A3CF87E29AE00E94C1060E94F21866
:105560001F928F938DE09AE09F938F930E945A072A
:1055700080910C011F928F9386EF99E09F938F93F8
:105580000E945A07809174011F928F9383EE99E0D5
:105590009F938F930E945A0780910D011F928F93C2
:1055A00080ED99E09F938F930E945A070E942925CE
:1055B0009F938F937F936F9389EB99E09F938F9342
:1055C0000E945A078DB79EB746960FB6F8949EBFB5
:1055D0000FBE8DBF64CF0E94B81EC0910D0181E047
:1055E000C827C0930D01CC2329F08FEA99E00E94CF
:1055F000C1060EC084EA99E050CF80E001C0895313
:105600000E943F284CCF82EA99E00E94C106C0E088
:105610008C2FCF91089580E0089580E00895CF9376
:10562000C82F8091ED01882319F0813049F03BC0EB
:10563000E0910E01F0910F0180818232B1F507C037
:10564000E0910E01F0910F018081823249F48C2F9C
:105650000E940B2B811124C08C2F0E945D2821C039
:105660008C2F0E940D2B81111BC0C43189F018F4BE
:10567000CB3029F010C0C93259F0C83361F484E648
:1056800097E00E94C1068BE597E00E94C10608C022
:105690001092ED010CC089E597E00E94C10607C099
:1056A00081E0817006C01092ED0180E002C080E0D0
:1056B000F8CFCF910895E1E8F0E0808188608083A1
:1056C0008081816080838FB7F89493E09093890004
:1056D00090ED909388008FBF0C943B0AEFE6F0E0CA
:1056E00080818260808381E08093FE010895EFE6EF
:1056F000F0E080818D7F80831092FE0180E00C9429
:105700004B0A8091FD0181608093FD010895109204
:10571000FD0180E00C944B0A8093FB010895E82F73
:10572000F0E0E550FE4F4081242F30E08FEF90E015
:10573000861B9109821793071CF48FEF80830895CD
:10574000640F60830895682F80E00C948F2BE82FFE
:10575000F0E0E550FE4F8081861710F41082089526
:10576000861B80830895682F80E00C94A72B80917E
:10577000FA0181608093FA0108951092FA01089568
:105780009091F90121E030E0082E01C0220F0A9427
:10579000EAF7662311F0292B02C0209529232093D4
:1057A000F9010895682F80E00C94C02B8093F801D4
:1057B00008958093F70108958091F60181608093A8
:1057C000F60108951092F60108958093F40108956A
:1057D0001F920F920FB60F9211242F933F934F9366
:1057E0005F936F937F938F939F93AF93BF93EF9349
:1057F000FF938091F1018F5F8093F1019091FD0102
:1058000090FF16C081110BC08091FC01882319F014
:1058100080E00E94430A8091FB018093FC019091FB
:10582000F1018091FC01981303C080E00E944B0AB3
:105830008091F0018F5F8093F001803408F460C0A4
:105840001092F0019091FA01992309F18091EF01F2
:105850008F5F8093EF012091F8012817C0F4109218
:10586000EF0190FF14C08091F701882321F081504F
:105870008093F7010CC08091F90161E080FF04C0C2
:1058800080E00E94A72B03C080E00E948F2B9091A4
:10589000F6019923A9F18091EE018F5F8093EE01CB
:1058A0002091F401281760F51092EE0190FF28C0B6
:1058B0008091F301E82FF0E0EC5FF34FE491E09387
:1058C000FB012091F20120FF12C081110EC02E7F3A
:1058D0002093F2018091F50180FF12C09E7F90938A
:1058E000F6018E7F8093F5010BC0815007C08F3782
:1058F00021F421602093F20103C08F5F8093F301B4
:10590000FF91EF91BF91AF919F918F917F916F9197
:105910005F914F913F912F910F900FBE0F901F906D
:1059200018950E941028811102C00E94F1270E9440
:1059300036288093450280FF02C0869501C080E032
:105940000C94F00980914502982F9695292F30E00C
:10595000283031054CF49F5F990F8170892B81604D
:10596000809345020E943A288091E70180FF0FC092
:105970008091450286951F928F9386EC9CE09F93C1
:105980008F930E945A070F900F900F900F90809165
:10599000450286950C94F00980914502982F9695C2
:1059A00091F09158990F8170892B809345028E7FD9
:1059B00091E009F490E08091450290FB80F980939A
:1059C00045020E943A288091E70180FF0FC0809134
:1059D000450286951F928F938EEA9CE09F938F934A
:1059E0000E945A070F900F900F900F9080914502E0
:1059F00086950C94F00980914502982F90959170AE
:105A000090FB80F980934502992339F0982F9E7F6F
:105A100021F48170826080934502809145020E944A
:105A20003A288091E70180FF0FC080914502817084
:105A30001F928F9388E99CE09F938F930E945A074F
:105A40000F900F900F900F908091450280FF02C041
:105A5000869501C080E00C94F00930914502232F17
:105A600026952F5F2F77822F90E0317009972CF4C5
:105A7000220F232B2093450202C0309345028091D0
:105A800045028E7F91E009F490E08091450290FB01
:105A900080F9809345020E943A288091E70180FFB7
:105AA0000FC08091450286951F928F9384E89CE0F9
:105AB0009F938F930E945A070F900F900F900F9013
:105AC0008091450286950C94F009880F90914502CB
:105AD0009170982B909345029E7F21E009F420E07D
